{
  "contractName": "Lottery",
  "abi": [
    {
      "inputs": [
        {
          "internalType": "uint256",
          "name": "_entryFee",
          "type": "uint256"
        },
        {
          "internalType": "uint256",
          "name": "_ownerCut",
          "type": "uint256"
        },
        {
          "internalType": "address",
          "name": "_randomNumberGenerator",
          "type": "address"
        }
      ],
      "stateMutability": "nonpayable",
      "type": "constructor"
    },
    {
      "anonymous": false,
      "inputs": [
        {
          "indexed": false,
          "internalType": "enum Lottery.LotteryState",
          "name": "newChangd",
          "type": "uint8"
        }
      ],
      "name": "LotteryStateChanged",
      "type": "event"
    },
    {
      "anonymous": false,
      "inputs": [
        {
          "indexed": false,
          "internalType": "address",
          "name": "player",
          "type": "address"
        },
        {
          "indexed": false,
          "internalType": "uint256",
          "name": "number",
          "type": "uint256"
        }
      ],
      "name": "NewEntry",
      "type": "event"
    },
    {
      "anonymous": false,
      "inputs": [
        {
          "indexed": false,
          "internalType": "bytes32",
          "name": "requestId",
          "type": "bytes32"
        },
        {
          "indexed": false,
          "internalType": "uint256",
          "name": "winningNumber",
          "type": "uint256"
        }
      ],
      "name": "NumberDrawn",
      "type": "event"
    },
    {
      "anonymous": false,
      "inputs": [
        {
          "indexed": false,
          "internalType": "bytes32",
          "name": "requestId",
          "type": "bytes32"
        }
      ],
      "name": "NumberRequested",
      "type": "event"
    },
    {
      "anonymous": false,
      "inputs": [
        {
          "indexed": true,
          "internalType": "address",
          "name": "previousOwner",
          "type": "address"
        },
        {
          "indexed": true,
          "internalType": "address",
          "name": "newOwner",
          "type": "address"
        }
      ],
      "name": "OwnershipTransferred",
      "type": "event"
    },
    {
      "inputs": [],
      "name": "entryFee",
      "outputs": [
        {
          "internalType": "uint256",
          "name": "",
          "type": "uint256"
        }
      ],
      "stateMutability": "view",
      "type": "function"
    },
    {
      "inputs": [],
      "name": "numberOfEntries",
      "outputs": [
        {
          "internalType": "uint256",
          "name": "",
          "type": "uint256"
        }
      ],
      "stateMutability": "view",
      "type": "function"
    },
    {
      "inputs": [],
      "name": "owner",
      "outputs": [
        {
          "internalType": "address",
          "name": "",
          "type": "address"
        }
      ],
      "stateMutability": "view",
      "type": "function"
    },
    {
      "inputs": [],
      "name": "ownerCut",
      "outputs": [
        {
          "internalType": "uint256",
          "name": "",
          "type": "uint256"
        }
      ],
      "stateMutability": "view",
      "type": "function"
    },
    {
      "inputs": [],
      "name": "renounceOwnership",
      "outputs": [],
      "stateMutability": "nonpayable",
      "type": "function"
    },
    {
      "inputs": [],
      "name": "state",
      "outputs": [
        {
          "internalType": "enum Lottery.LotteryState",
          "name": "",
          "type": "uint8"
        }
      ],
      "stateMutability": "view",
      "type": "function"
    },
    {
      "inputs": [
        {
          "internalType": "address",
          "name": "newOwner",
          "type": "address"
        }
      ],
      "name": "transferOwnership",
      "outputs": [],
      "stateMutability": "nonpayable",
      "type": "function"
    },
    {
      "inputs": [],
      "name": "winningNumber",
      "outputs": [
        {
          "internalType": "uint256",
          "name": "",
          "type": "uint256"
        }
      ],
      "stateMutability": "view",
      "type": "function"
    },
    {
      "inputs": [
        {
          "internalType": "uint256",
          "name": "_number",
          "type": "uint256"
        }
      ],
      "name": "submitNumber",
      "outputs": [],
      "stateMutability": "payable",
      "type": "function"
    },
    {
      "inputs": [
        {
          "internalType": "uint256",
          "name": "_seed",
          "type": "uint256"
        }
      ],
      "name": "drawNumber",
      "outputs": [],
      "stateMutability": "nonpayable",
      "type": "function"
    },
    {
      "inputs": [],
      "name": "random",
      "outputs": [
        {
          "internalType": "uint256",
          "name": "",
          "type": "uint256"
        }
      ],
      "stateMutability": "view",
      "type": "function"
    }
  ],
  "bytecode": "0x60806040523480156200001157600080fd5b50604051620013d9380380620013d98339818101604052810190620000379190620002f4565b620000576200004b6200010b60201b60201c565b6200011360201b60201c565b600083116200009d576040517f08c379a00000000000000000000000000000000000000000000000000000000081526004016200009490620003b1565b60405180910390fd5b818311620000e2576040517f08c379a0000000000000000000000000000000000000000000000000000000008152600401620000d99062000449565b60405180910390fd5b8260058190555081600681905550620001026000620001d760201b60201c565b50505062000508565b600033905090565b60008060009054906101000a900473ffffffffffffffffffffffffffffffffffffffff169050816000806101000a81548173ffffffffffffffffffffffffffffffffffffffff021916908373ffffffffffffffffffffffffffffffffffffffff1602179055508173ffffffffffffffffffffffffffffffffffffffff168173ffffffffffffffffffffffffffffffffffffffff167f8be0079c531659141344cd1fd0a4f28419497f9722a3daafe3b4186f6b6457e060405160405180910390a35050565b80600360006101000a81548160ff02191690836002811115620001ff57620001fe6200046b565b5b02179055507f1e046fdd2110d82ed3fa7652b41ced17c49cbb9ee4536e65f51ad2a6ed5359a7600360009054906101000a900460ff16604051620002449190620004eb565b60405180910390a150565b600080fd5b6000819050919050565b620002698162000254565b81146200027557600080fd5b50565b60008151905062000289816200025e565b92915050565b600073ffffffffffffffffffffffffffffffffffffffff82169050919050565b6000620002bc826200028f565b9050919050565b620002ce81620002af565b8114620002da57600080fd5b50565b600081519050620002ee81620002c3565b92915050565b60008060006060848603121562000310576200030f6200024f565b5b6000620003208682870162000278565b9350506020620003338682870162000278565b92505060406200034686828701620002dd565b9150509250925092565b600082825260208201905092915050565b7f456e74727920666565206d7573742062652067726561746572207468616e2030600082015250565b60006200039960208362000350565b9150620003a68262000361565b602082019050919050565b60006020820190508181036000830152620003cc816200038a565b9050919050565b7f456e74727920666565206d7573742062652067726561746572207468616e206f60008201527f776e657220637574000000000000000000000000000000000000000000000000602082015250565b60006200043160288362000350565b91506200043e82620003d3565b604082019050919050565b60006020820190508181036000830152620004648162000422565b9050919050565b7f4e487b7100000000000000000000000000000000000000000000000000000000600052602160045260246000fd5b60038110620004ae57620004ad6200046b565b5b50565b6000819050620004c1826200049a565b919050565b6000620004d382620004b1565b9050919050565b620004e581620004c6565b82525050565b6000602082019050620005026000830184620004da565b92915050565b610ec180620005186000396000f3fe60806040526004361061009c5760003560e01c8063825f787211610064578063825f78721461015557806383b5ff8b146101805780638da5cb5b146101ab5780639ae2ff2c146101d6578063c19d93fb146101ff578063f2fde38b1461022a5761009c565b8063072ea61c146100a15780634664611e146100cc5780634fcb4de2146100f75780635ec01e4d14610113578063715018a61461013e575b600080fd5b3480156100ad57600080fd5b506100b6610253565b6040516100c39190610964565b60405180910390f35b3480156100d857600080fd5b506100e1610259565b6040516100ee9190610964565b60405180910390f35b610111600480360381019061010c91906109b0565b61025f565b005b34801561011f57600080fd5b5061012861044d565b6040516101359190610964565b60405180910390f35b34801561014a57600080fd5b50610153610480565b005b34801561016157600080fd5b5061016a610508565b6040516101779190610964565b60405180910390f35b34801561018c57600080fd5b5061019561050e565b6040516101a29190610964565b60405180910390f35b3480156101b757600080fd5b506101c0610514565b6040516101cd9190610a1e565b60405180910390f35b3480156101e257600080fd5b506101fd60048036038101906101f891906109b0565b61053d565b005b34801561020b57600080fd5b5061021461063e565b6040516102219190610ab0565b60405180910390f35b34801561023657600080fd5b50610251600480360381019061024c9190610af7565b610651565b005b60055481565b60075481565b600080600281111561027457610273610a39565b5b600360009054906101000a900460ff16600281111561029657610295610a39565b5b146102d6576040517f08c379a00000000000000000000000000000000000000000000000000000000081526004016102cd90610b81565b60405180910390fd5b60055434101561031b576040517f08c379a000000000000000000000000000000000000000000000000000000000815260040161031290610bed565b60405180910390fd5b610340336001600085815260200190815260200160002061074990919063ffffffff16565b61037f576040517f08c379a000000000000000000000000000000000000000000000000000000000815260040161037690610c7f565b60405180910390fd5b6002829080600181540180825580915050600190039060005260206000200160009091909190915055600460008154809291906103bb90610cce565b91905055506103c8610514565b73ffffffffffffffffffffffffffffffffffffffff166108fc6006549081150290604051600060405180830381858888f1935050505015801561040f573d6000803e3d6000fd5b507f9d5cf8d6fc62210bab9630b8d613c1b63d9cfe0e0d2d70dda538d69c7e4f37ba3383604051610441929190610d17565b60405180910390a15050565b60004442604051602001610462929190610d61565b6040516020818303038152906040528051906020012060001c905090565b610488610779565b73ffffffffffffffffffffffffffffffffffffffff166104a6610514565b73ffffffffffffffffffffffffffffffffffffffff16146104fc576040517f08c379a00000000000000000000000000000000000000000000000000000000081526004016104f390610dd9565b60405180910390fd5b6105066000610781565b565b60045481565b60065481565b60008060009054906101000a900473ffffffffffffffffffffffffffffffffffffffff16905090565b610545610779565b73ffffffffffffffffffffffffffffffffffffffff16610563610514565b73ffffffffffffffffffffffffffffffffffffffff16146105b9576040517f08c379a00000000000000000000000000000000000000000000000000000000081526004016105b090610dd9565b60405180910390fd5b60008060028111156105ce576105cd610a39565b5b600360009054906101000a900460ff1660028111156105f0576105ef610a39565b5b14610630576040517f08c379a000000000000000000000000000000000000000000000000000000000815260040161062790610b81565b60405180910390fd5b61063a6001610845565b5050565b600360009054906101000a900460ff1681565b610659610779565b73ffffffffffffffffffffffffffffffffffffffff16610677610514565b73ffffffffffffffffffffffffffffffffffffffff16146106cd576040517f08c379a00000000000000000000000000000000000000000000000000000000081526004016106c490610dd9565b60405180910390fd5b600073ffffffffffffffffffffffffffffffffffffffff168173ffffffffffffffffffffffffffffffffffffffff16141561073d576040517f08c379a000000000000000000000000000000000000000000000000000000000815260040161073490610e6b565b60405180910390fd5b61074681610781565b50565b6000610771836000018373ffffffffffffffffffffffffffffffffffffffff1660001b6108b8565b905092915050565b600033905090565b60008060009054906101000a900473ffffffffffffffffffffffffffffffffffffffff169050816000806101000a81548173ffffffffffffffffffffffffffffffffffffffff021916908373ffffffffffffffffffffffffffffffffffffffff1602179055508173ffffffffffffffffffffffffffffffffffffffff168173ffffffffffffffffffffffffffffffffffffffff167f8be0079c531659141344cd1fd0a4f28419497f9722a3daafe3b4186f6b6457e060405160405180910390a35050565b80600360006101000a81548160ff0219169083600281111561086a57610869610a39565b5b02179055507f1e046fdd2110d82ed3fa7652b41ced17c49cbb9ee4536e65f51ad2a6ed5359a7600360009054906101000a900460ff166040516108ad9190610ab0565b60405180910390a150565b60006108c48383610928565b61091d578260000182908060018154018082558091505060019003906000526020600020016000909190919091505582600001805490508360010160008481526020019081526020016000208190555060019050610922565b600090505b92915050565b600080836001016000848152602001908152602001600020541415905092915050565b6000819050919050565b61095e8161094b565b82525050565b60006020820190506109796000830184610955565b92915050565b600080fd5b61098d8161094b565b811461099857600080fd5b50565b6000813590506109aa81610984565b92915050565b6000602082840312156109c6576109c561097f565b5b60006109d48482850161099b565b91505092915050565b600073ffffffffffffffffffffffffffffffffffffffff82169050919050565b6000610a08826109dd565b9050919050565b610a18816109fd565b82525050565b6000602082019050610a336000830184610a0f565b92915050565b7f4e487b7100000000000000000000000000000000000000000000000000000000600052602160045260246000fd5b60038110610a7957610a78610a39565b5b50565b6000819050610a8a82610a68565b919050565b6000610a9a82610a7c565b9050919050565b610aaa81610a8f565b82525050565b6000602082019050610ac56000830184610aa1565b92915050565b610ad4816109fd565b8114610adf57600080fd5b50565b600081359050610af181610acb565b92915050565b600060208284031215610b0d57610b0c61097f565b5b6000610b1b84828501610ae2565b91505092915050565b600082825260208201905092915050565b7f57726f6e6720737461746520666f72207468697320616374696f6e0000000000600082015250565b6000610b6b601b83610b24565b9150610b7682610b35565b602082019050919050565b60006020820190508181036000830152610b9a81610b5e565b9050919050565b7f4d696e696d756d20656e74727920666565207265717569726564000000000000600082015250565b6000610bd7601a83610b24565b9150610be282610ba1565b602082019050919050565b60006020820190508181036000830152610c0681610bca565b9050919050565b7f43616e206e6f74207375626d6974207468652073616d65206e756d626572206d60008201527f6f7265207468616e206f6e636500000000000000000000000000000000000000602082015250565b6000610c69602d83610b24565b9150610c7482610c0d565b604082019050919050565b60006020820190508181036000830152610c9881610c5c565b9050919050565b7f4e487b7100000000000000000000000000000000000000000000000000000000600052601160045260246000fd5b6000610cd98261094b565b91507fffffffffffffffffffffffffffffffffffffffffffffffffffffffffffffffff821415610d0c57610d0b610c9f565b5b600182019050919050565b6000604082019050610d2c6000830185610a0f565b610d396020830184610955565b9392505050565b6000819050919050565b610d5b610d568261094b565b610d40565b82525050565b6000610d6d8285610d4a565b602082019150610d7d8284610d4a565b6020820191508190509392505050565b7f4f776e61626c653a2063616c6c6572206973206e6f7420746865206f776e6572600082015250565b6000610dc3602083610b24565b9150610dce82610d8d565b602082019050919050565b60006020820190508181036000830152610df281610db6565b9050919050565b7f4f776e61626c653a206e6577206f776e657220697320746865207a65726f206160008201527f6464726573730000000000000000000000000000000000000000000000000000602082015250565b6000610e55602683610b24565b9150610e6082610df9565b604082019050919050565b60006020820190508181036000830152610e8481610e48565b905091905056fea26469706673582212203b6e6db6bbbe2d56013597d49c2f3bbcc7f154faf8f5b67a2929baf389cd855e64736f6c634300080a0033",
  "immutableReferences": {},
  "source": "pragma solidity ^0.8.10;\nimport \"../node_modules/@openzeppelin/contracts/access/Ownable.sol\";\nimport \"../node_modules/@openzeppelin/contracts/utils/structs/EnumerableSet.sol\";\nimport \"../node_modules/@openzeppelin/contracts/utils/Address.sol\";\nimport \"../node_modules/@openzeppelin/contracts/utils/math/SafeMath.sol\";\n\ncontract Lottery is Ownable {\n    using EnumerableSet for EnumerableSet.AddressSet;\n    using Address for address;\n    using SafeMath for uint256;\n\n    enum LotteryState {\n        Open,\n        Closed,\n        Finished\n    }\n\n    mapping(uint256 => EnumerableSet.AddressSet) entries;\n    uint256[] numbers;\n    LotteryState public state;\n    uint256 public numberOfEntries;\n    uint256 public entryFee;\n    uint256 public ownerCut;\n    uint256 public winningNumber;\n    address randomNumberGenreator;\n    bytes32 randomNumberRequestId;\n\n    event LotteryStateChanged(LotteryState newChangd);\n    event NewEntry(address player, uint256 number);\n    event NumberRequested(bytes32 requestId);\n    event NumberDrawn(bytes32 requestId, uint256 winningNumber);\n\n    modifier isState(LotteryState _state) {\n        require(state == _state, \"Wrong state for this action\");\n        _;\n    }\n\n    constructor(\n        uint256 _entryFee,\n        uint256 _ownerCut,\n        address _randomNumberGenerator\n    ) public Ownable() {\n        require(_entryFee > 0, \"Entry fee must be greater than 0\");\n        require(\n            _entryFee > _ownerCut,\n            \"Entry fee must be greater than owner cut\"\n        );\n        entryFee = _entryFee;\n        ownerCut = _ownerCut;\n        _changeState(LotteryState.Open);\n    }\n\n    function submitNumber(uint256 _number)\n        public\n        payable\n        isState(LotteryState.Open)\n    {\n        require(msg.value >= entryFee, \"Minimum entry fee required\");\n        require(\n            entries[_number].add(msg.sender),\n            \"Can not submit the same number more than once\"\n        );\n        numbers.push(_number);\n        numberOfEntries++;\n        payable(owner()).transfer(ownerCut);\n        emit NewEntry(msg.sender, _number);\n    }\n\n    function drawNumber(uint256 _seed)\n        public\n        onlyOwner\n        isState(LotteryState.Open)\n    {\n        _changeState(LotteryState.Closed);\n    }\n\n    function _changeState(LotteryState _newState) private {\n        state = _newState;\n        emit LotteryStateChanged(state);\n    }\n\n    function random() public view returns (uint256) {\n        return\n            uint256(\n                keccak256(abi.encodePacked(block.difficulty, block.timestamp))\n            );\n    }\n}\n",
  "sourcePath": "/Users/monikkacha/Developer/web/blockchain/lottery/contracts/Lottery.sol",
  "compiler": {
    "name": "solc",
    "version": "0.8.10+commit.fc410830.Emscripten.clang"
  },
  "schemaVersion": "3.4.4",
  "updatedAt": "2021-12-28T10:21:19.085Z",
  "devdoc": {
    "kind": "dev",
    "methods": {
      "owner()": {
        "details": "Returns the address of the current owner."
      },
      "renounceOwnership()": {
        "details": "Leaves the contract without owner. It will not be possible to call `onlyOwner` functions anymore. Can only be called by the current owner. NOTE: Renouncing ownership will leave the contract without an owner, thereby removing any functionality that is only available to the owner."
      },
      "transferOwnership(address)": {
        "details": "Transfers ownership of the contract to a new account (`newOwner`). Can only be called by the current owner."
      }
    },
    "version": 1
  },
  "userdoc": {
    "kind": "user",
    "methods": {},
    "version": 1
  }
}